:100000000C942A000C943F000C943F000C943F0089
:100010000C943F000C943F000C943F000C943F0064
:100020000C943F000C943F000C943F000C943F0054
:100030000C943F000C943F000C943F000C943F0044
:100040000C943F000C943F000C943F000C943F0034
:100050000C943F0011241FBECFE5D4E0DEBFCDBF1E
:1000600010E0A0E6B0E0E6E4F1E002C005900D92F9
:10007000AC37B107D9F70E9495000C94A1000C94FD
:10008000000088BB85B38E7F85BB85B38D7F85BB24
:1000900085B3846085BB83EF91E00197F1F700C0E1
:1000A000000085B38B7F85BB089588BB85B38160D5
:1000B00085BB85B38D7F85BB85B3846085BB83EFAE
:1000C00091E00197F1F700C0000085B38B7F85BBFD
:1000D00008950F931F93CF93DF938C01C0E0D0E07E
:1000E00004C090E00E9455002196F801EC0FFD1F1E
:1000F00080818111F6CFDF91CF911F910F910895EB
:1001000088E390E00E9441008EE090E00E94410070
:1001100081E090E00E94410086E090E00E94410072
:1001200080EC90E00E94410008958FEF87BB84BB74
:100130000E94800080E690E00E94690080E090E0EC
:060140000895F894FFCFC2
:1001460068656C6C6F20686920686F77207220750F
:0C01560020313233343536373839300070
:00000001FF
